:100000003EC167C187C365C164C108C662C161C121
:1000100060C15FC15EC118C65CC12E2B20706F77B6
:100020006572206F6E207265736574002E2B2065DB
:10003000787465726E616C207265736574002E2B26
:100040002062726F776E6F757420726573657400CD
:100050002E2B207761746368646F67207265736507
:1000600074002E2B204C756E676D6174652076319F
:100070002E33002E232045786974203A00D0037B6C
:10008000052607D0087B0A260CD00D7B0F2611D041
:100090001200004572723A546F6F20736D616C6C80
:1000A000004572723A546F6F206269670045727240
:1000B0003A4F7574206F662072616E676500203C50
:1000C00020000A3E200023204C756E674D61746548
:1000D0002076312E33000A20302065786974005D67
:1000E0000020205B00203D20000000803F00000039
:1000F0000072C47E3F23BDC83DBA147B3FACC547E8
:100100003E05FA743F3CA0943E66836C3F07EFC304
:100110003E93C5613FF35AF13E38DB543FD6390E6A
:100120003FFCE3453F9467223FF704353FF7043532
:100130003F9467223FFCE3453FD6390E3F38DB54FE
:100140003FF35AF13E93C5613F07EFC33E66836CB0
:100150003F3CA0943E05FA743FACC5473EBA147BC1
:100160003F23BDC83D72C47E3F00000000000080F8
:100170003F23BDC8BD72C47E3FACC547BEBA147B29
:100180003F3CA094BE05FA743F07EFC3BE66836C84
:100190003FF35AF1BE93C5613FD6390EBF38DB54E9
:1001A0003F946722BFFCE3453FF70435BFF70435B2
:1001B0003FFCE345BF9467223F38DB54BFD6390E7E
:1001C0003F93C561BFF35AF13E66836CBF07EFC32F
:1001D0003E05FA74BF3CA0943EBA147BBFACC54741
:1001E0003E72C47EBF23BDC83D5475726E206F6ED3
:1001F000206D696E20706F77657220287761747446
:100200007329005265736574206D6F646520283111
:100210003D6175746F2C20303D6F66662900506F0C
:1002200073742064656C617920287365636F6E64F4
:1002300073290043616C6962726174696F6E004377
:10024000656E746572206672657175656E6379207E
:1002500028487A2900E9011E000F27320003020016
:1002600000010001001E02000063000500330201CE
:1002700000FF7F340D3F0228004600320000E9E114
:10028000F2E085EC92E001C08193EF35F907E0F3ED
:10029000D9F311241FBECFE5D2E0DEBFCDBF84B7B6
:1002A0008093180214BE10E0A0E6B0E0E6E3FCE1A3
:1002B00003C0C89531960D92A236B107D1F712E06E
:1002C000A2E6B0E001C01D92A831B107E1F744D029
:1002D00039C096CE86B7826086BFD69AD59AD49A10
:1002E00082E096E0ABD182E690E0F3D280911802F2
:1002F00083FF03C080E590E0ECD28091180282FF7A
:1003000003C08EE390E0E5D28091180281FF03C024
:100310008CE290E0DED28091180280FF03C08AE177
:1003200090E0D7D230D884E090E0CFD8E5D48CEA02
:1003300092E06BE972E022D747D14BD485B7877E34
:1003400085BF08958C01F89483E790E0C2D2C8017C
:1003500060E070E0C2D2FFCFAF92BF92DF92EF9227
:10036000FF920F931F93CF93DF93B4DF83E090E06E
:10037000ACD868EE73E014DC882777FD8095982F61
:1003800046DA609368007093690080936A009093E6
:100390006B0085B7806285BF889585B78F7D85BFE7
:1003A000DC9A94D1882351F09AD18A30910511F0CA
:1003B0000D9709F4B9D3B4D40CD47DC0F8948091CE
:1003C0001502109215027894882369F080916200DA
:1003D0008F5F80936200873008F46DC010926200D6
:1003E000DBD6CDD068C0F89480911402109214022C
:1003F0007894882309F45FC08091160290911702C7
:100400009FD4882309F43FC090D420916800309194
:10041000690040916A0050916B00AADA7B018C015F
:1004200020E03FEF4FE757E4C0D987FD03C0CFEF8F
:10043000DFEF04C0C801B701BCD9EB01CE013DD04C
:1004400083E6A82E80E0B82EDD240EC0CE016AE03F
:1004500070E090DB805DF50181935F01CE016AE081
:1004600070E088DBEB01D394C801B70120E030E0F5
:1004700040E050E09AD9882349F7DD2039F3D09243
:100480006000A89518C0E0916000E7FD07C0FF2755
:10049000E7FDF095ED59FF4F808107C0EF3F11F464
:1004A0008AE003C0EE3F39F48DE0E9D0809160002E
:1004B000815080936000DC986CCF9C018091720029
:1004C000813091F480917700909178002817390756
:1004D00058F010927100809170008F5F80937000CF
:1004E000863010F010927200809172008823A9F477
:1004F00080917500909176008217930770F01092AA
:100500007000809171008F5F8093710090917900ED
:10051000981718F481E08093720080917300813005
:1005200031F0823031F480917200882311F4C59843
:100530000895C59A089580917300813029F0813023
:1005400018F0823041F404C082E080937300089573
:1005500081E080937300089580917300813049F0A9
:10056000813018F0823051F407C081E0809373002D
:100570000895109273000895109273000895809169
:100580007300813041F0813018F08230E1F408C00E
:10059000C698C69A02C0C69AC6981092740008956A
:1005A00020917400222339F488B390E4892788BB12
:1005B00088B3892788BB822F8F5F8093740089302E
:1005C00010F010927400089581E090E07ED70197BA
:1005D00021F482E08093730002C01092730081E0E6
:1005E0008093720010926C0010926D0010926E0059
:1005F00010926F00109270001092710010927400AF
:1006000080E090E062D79C0190937800809377001F
:1006100024513040309376002093750082E090E0C2
:1006200054D790E065E070E06CDA80937900C59A69
:10063000BD9AC69ABE9AC698BE9A089510927A003C
:100640009093800080937F00BC9AC39AC49A12BC96
:1006500082B583BD8BB780618BBF80E183BF88BFCC
:1006600080E885BB88B7806188BF89B7806189BF12
:10067000789480E28ABF82B5886082BD0895982F01
:1006800082B5877F82BD80E28ABFF89409C07894E2
:1006900085B7806285BF889585B78F7D85BFF894C3
:1006A00080917A00882399F782E080937A00909372
:1006B0007B0010927E0082BB86E283BB14BA12BE1E
:1006C00080E188BF89E083BF7894089580917A00A3
:1006D00090E08450833008F491E0892F089585B725
:1006E000877E85BFF89409C0789485B7806285BFFE
:1006F000889585B78F7D85BFF89480917A00863084
:1007000099F7789410927A0020917C0030917D00C6
:10071000C90108951F920F920FB60F9211242F93C3
:100720003F934F935F936F937F938F939F93AF9379
:10073000BF93EF93FF93B39921C0DD9A82B5877F72
:1007400082BD80E28ABF14BA12BE82E082BB86E21A
:1007500083BB80E188BF89E083BF84E080937A0017
:1007600010927E0010927D0010927C00E0917F003C
:10077000F0918000309709F00995DD98FF91EF9195
:10078000BF91AF919F918F917F916F915F914F91A9
:100790003F912F910F900FBE0F901F9018951F92B1
:1007A0000F920FB60F9211248F939F93EF93FF93A5
:1007B000DD9A80917E00E82FF0E0EE0FFF1FE358F6
:1007C000FF4F8591949192BB83BB80917A008230D8
:1007D00061F0833020F4813009F054C009C08330C7
:1007E000E9F0843009F04EC01FC0C49881E013C006
:1007F00080917E00893068F480917B0080FF02C088
:10080000C49A01C0C49880917B00869580937B0038
:100810003BC0C49A83E080937A0036C080E183BFF6
:1008200088BF10927A0028C080917E008830B0F492
:1008300080917C0090917D009595879590937D00A7
:1008400080937C00B39B20C080917C0090917D00C0
:10085000806890937D0080937C0016C0B39906C099
:100860008FEF9FEF90937D0080937C0086E08093D4
:100870007A0080E183BF88BF80E28ABF82B588604A
:1008800082BD02C010927A0080917E008F5F8093BB
:100890007E00DD98FF91EF919F918F910F900FBE99
:1008A0000F901F9018951F93182FE9DE1A3011F43E
:1008B0008DE0E5DE1F910895CF93DF93EC0102C038
:1008C000F2DF2196FE0184918823D1F7DF91CF9149
:1008D0000895F2DF8AE0E7DF0895BF92CF92DF92BA
:1008E000EF92FF920F931F93CF93DF937C016B01E5
:1008F00097FF06C08DE2D7DFF094E194F108F394FE
:1009000000E117E295E0B92E03C0CC24CA94DC2C98
:10091000C701B8012FD9262F862F90E0B801F1D852
:10092000E81AF90AC8016AE070E024D9EB018B01EA
:10093000222329F46115710511F0D7FE06C0822F1C
:10094000805DB1DFCD2B09F709C0BA948B2D90E003
:100950008C159D05ECF680E2A6DFDACFDF91CF9112
:100960001F910F91FF90EF90DF90CF90BF9008956F
:10097000AF92BF92CF92DF92FF920F931F93DF93BC
:10098000CF9300D000D000D0CDB7DEB75C01FF24FC
:100990006E010894C11CD11C1EC010161106DCF497
:1009A0000830110551F4FF2059F088E07CDF80E227
:1009B0007ADF88E078DFFA943AC084E08F1548F057
:1009C000C801C0970A9760F10D32110511F4FF209C
:1009D00039F187E068DF83DE8C018D30910519F0F5
:1009E0008A309105D1F68AE05EDFFF2011F480E0C5
:1009F00007C0CE01019681D5F5019183808381E006
:100A000026960FB6F894DEBF0FBECDBFCF91DF9113
:100A10001F910F91FF90DF90CF90BF90AF900895FE
:100A2000802F41DFF601EF0DF11D0083F394F601F5
:100A3000EF0DF11D1082CFCF4F925F926F927F9298
:100A40008F929F92AF92BF92CF92DF92EF92FF92DE
:100A50000F931F93DF93CF9300D000D0CDB7DEB7B5
:100A6000EE24FF2493E0492E512C4C0E5D1E3E01D6
:100A70000894611C711C8EE1882E912CC701B30172
:100A8000A201DDD35C0167010894C11CD11CC60121
:100A900062E070E022DF80E206DFC50158D5840104
:100AA000081B190B04C080E2FEDE01501040101636
:100AB0001106CCF3C50100DF85EE90E0FDDEC70135
:100AC00004D565E070E009DF81EE90E0F5DE898114
:100AD0009A8160E070E001DF8AE3E5DE8B819C8132
:100AE00060E070E0FADE8FED90E0F3DE85E0C8169E
:100AF000D10411F07601C2CF86ED90E0EADE0F90CE
:100B00000F900F900F90CF91DF911F910F91FF9059
:100B1000EF90DF90CF90BF90AF909F908F907F909D
:100B20006F905F904F900895EF92FF920F931F93F5
:100B3000DF93CF9300D000D0CDB7DEB786EC90E046
:100B4000C8DE7ADF7E010894E11CF11C8E010D5F86
:100B50001F4F82EC90E0B0DEC7010ADF882361F10D
:100B600089819A81009751F101978430910588F726
:100B70009A838983AAD49C838B8360E070E0ADDE86
:100B80008EEB90E099DEC801F3DE882311F36B81D0
:100B90007C8189819A814CD4823039F0833041F054
:100BA0008130B9F68DEA90E005C081EA90E002C09C
:100BB00083E990E08EDECDCF3FDFCBCF0F900F905B
:100BC0000F900F90CF91DF911F910F91FF90EF90B9
:100BD00008951092140210921502109283008DEC69
:100BE00087B98EE086B988ED83B988E681B983E05C
:100BF00085BD8FE18BBD89B7846089BF86E48FBDD9
:100C00007894089580E48FBD379889B78B7F89BF2A
:100C100084E088BF339880E186B908951F920F92CF
:100C20000FB60F9211248F939F938BB390E4892773
:100C30008BBB379A81E0809315029F918F910F9023
:100C40000FBE0F901F9018951F920F920FB60F9224
:100C500011242F933F934F935F938F939F938BB365
:100C600090E489278BBB24B185B181FD8E6F4091C3
:100C7000810050918200992787FD9095982F8827B1
:100C8000332727FD3095822B932B840F951F90934C
:100C9000820080938100809183008F5F8093830026
:100CA000809183008F7080938300809183008823DC
:100CB000A1F48091810090918200959587959595FA
:100CC0008795909317028093160281E08093140217
:100CD000109282001092810037988BB390E489279C
:100CE0008BBB9F918F915F914F913F912F910F906F
:100CF0000FBE0F901F90189565E030D7382F20E079
:100D000090E0990F832F8170982B36952F5F2630B6
:100D1000C1F7909304021092070210920502089501
:100D20001092070210920502089520910A02309154
:100D30000B0240910C0250910D02B901CA010895B5
:100D40002F923F924F925F926F927F928F929F92DB
:100D5000AF92BF92CF92DF92EF92FF920F931F93C9
:100D6000DF93CF93CDB7DEB764970FB6F894DEBFAD
:100D70000FBECDBF9A8B898B80910702882309F41F
:100D8000C6C1E0910502EF3309F486C180910602E5
:100D9000882E8E0E082D005290910402892309F4AA
:100DA000DAC06091080270E053E0660F771F5A9531
:100DB000E1F767517F4FCE01019648E050E0BBD389
:100DC000E0910502802F90E0E032D8F58C0143E0FD
:100DD000000F111F4A95E1F70C571F4F00581F4F86
:100DE000F0E0EE0FFF1FEC57FF4F60817181882705
:100DF00077FD8095982F0BD529813A814B815C81B5
:100E0000B7D56B017C01E82DF0E0EE0FFF1FEC572A
:100E1000FF4F60817181882777FD8095982FF7D4E7
:100E20002D813E814F815885A3D59B01AC01C7011F
:100E3000B60151D4D8016D937D938D939D938D010F
:100E4000B4C06C0193E0CC0CDD1C9A95E1F724E86A
:100E500030E0C20ED31EC60180589F4F9C8B8B8BF7
:100E6000DC018D919D910D90BC91A02D8D879E8769
:100E7000AF87B88B49805A806B807C80E0520E2F00
:100E800010E08D819E81AF81B88589879A87AB8775
:100E9000BC8783E0000F111F8A95E1F7020F131F33
:100EA000B0E82B2E312C200E311ED1016D917D9199
:100EB0008D919C912D853E854F8558890CD49B0141
:100EC000AC01C301B20154D54B015C010C571F4F5B
:100ED000E4E8F0E0CE0EDF1ED8016D917D918D919A
:100EE0009C91F6012081318142815381F4D37B01B1
:100EF0008C0169857A858B859C85A801970138D5F9
:100F00009B01AC01C501B401E6D3AB89BC896D93EB
:100F10007D938D939C931397C301B201A801970110
:100F200027D57B018C01F1016081718182819381E0
:100F30002D853E854F855889CED39B01AC016985AF
:100F40007A858B859C8514D59B01AC01C801B701BE
:100F5000C3D3D60171C0802F90E0E03280F58C01C0
:100F6000A3E0000F111FAA95E1F70C571F4F00587F
:100F70001F4FA82DB0E0AA0FBB1FAC57BF4FF0E02A
:100F8000EE0FFF1FEC57FF4F6D917C912081318157
:100F9000620F731F882777FD8095982F38D4F8014A
:100FA00061937193819391938F0180E090E0A0E031
:100FB000B0E0F80180839183A283B38342C0E05202
:100FC0000E2F10E07C0163E0EE0CFF1C6A95E1F748
:100FD00024E830E0E20EF31E50E8C52ED12CCE0CF2
:100FE000DF1C43E0000F111F4A95E1F7020F131FAA
:100FF00000581F4FD6016D917D918D919C91F80104
:1010000021913191419151918F0166D3D6016D9318
:101010007D938D939C931397E4E8F0E0EE0EFF1E12
:10102000D7016D917D918D919C91F8012081318145
:101030004281538151D3D7016D937D938D939C93BE
:10104000139780910502E82FF0E0EE0FFF1FEC5799
:10105000FF4F29893A89318320838F5F809305026E
:10106000909109029F5F909309022091070280915D
:101070000802820F8093080280910602981709F0F7
:1010800063C096959093060210920902109208028E
:10109000220F2093070258C089899A8990930301EF
:1010A000809302016091FC017091FD018091FE012D
:1010B0009091FF010CD57B018C0160910002709131
:1010C0000102809102029091030201D59B01AC01C3
:1010D000C801B70101D3BBD420E030E040E05DE3BC
:1010E00047D460930A0270930B0280930C02909392
:1010F0000D0210920502109208021092090281E07E
:101100008093070280E28093060281E01EC08091F6
:101110000502E82FF0E0EE0FFF1FEC57FF4FA98903
:10112000BA89B183A0838F5F80930502803461F414
:1011300010920502109208021092090281E0809339
:10114000070280E28093060280E064960FB6F8946E
:10115000DEBF0FBECDBFCF91DF911F910F91FF90EA
:10116000EF90DF90CF90BF90AF909F908F907F9047
:101170006F905F904F903F902F9008959093110241
:10118000809310027093130260931202DF9A109200
:101190000E0210920F02089580910E02CF9920C086
:1011A000882319F08130A9F50BC080910F028F5F61
:1011B00080930F02843068F181E080930E020895DD
:1011C00080910F028F5F80930F02893210F182E0CD
:1011D00080930E02E0911002F0911102099508959A
:1011E000813029F0813070F0823099F40EC0809106
:1011F0000F02843038F010920E02E0911202F0914A
:101200001302099510920F02089510920E02109287
:101210000F0208959C01E199FECF3FBB2EBBE09ADF
:101220008DB308959C01E199FECF1CBA3FBB2EBB44
:101230006DBB0FB6F894E29AE19A0FBE0895EF9253
:10124000FF920F931F93DF93CF93CDB7DEB728970D
:101250000FB6F894DEBF0FBECDBF8B017A01BC0183
:1012600083E0660F771F8A95E1F76B5A7D4FCE01B9
:10127000019648E050E05FD18B819C81F801918319
:1012800080838D819E81F7019183808389819A81FA
:1012900028960FB6F894DEBF0FBECDBFCF91DF9179
:1012A0001F910F91FF90EF900895AF92BF92CF9250
:1012B000DF92EF92FF920F931F93CF93DF93C0E0E3
:1012C000D0E002E010E0FE0133E0EE0FFF1F3A95A0
:1012D000E1F7E55AFD4F4591559165917491C8012B
:1012E00022E139E0A0D10E5F1F4F2196C530D10514
:1012F00051F725E5C22E22E0D22E21E739ED40E05C
:1013000050E0AA24BB242AC0F7011491BB27A52FC3
:10131000942F832F1827210F311D411D511DCA0104
:10132000B9012DE63EEC40E050E0FDD39B01AC015D
:101330002154374A4F4F5F4FA10EB11C219608949C
:10134000E11CF11CC830D105F9F688E090E0C80E28
:10135000D91E9DE7C91692E0D90621F07601C0E0BA
:10136000D0E0D2CF80E090E0B50142E159E08CD1ED
:10137000DF91CF911F910F91FF90EF90DF90CF9071
:10138000BF90AF900895AF92BF92CF92DF92EF924D
:10139000FF921F93CF93DF9375E5C72E72E0D72E90
:1013A00021E739ED40E050E0AA24BB242AC0F70130
:1013B0001491BB27A52F942F832F1827210F311DA0
:1013C000411D511DCA01B9012DE63EEC40E050E03F
:1013D000AAD39B01AC012154374A4F4F5F4FA10E56
:1013E000B11C21960894E11CF11CC830D105F9F616
:1013F00088E090E0C80ED91E9DE7C91692E0D90694
:1014000021F07601C0E0D0E0D2CF80E090E06AE049
:1014100079E0CAD0A816B90609F047DFDF91CF916D
:101420001F91FF90EF90DF90CF90BF90AF90089505
:10143000EF92FF920F931F93DF93CF93CDB7DEB759
:101440002A970FB6F894DEBF0FBECDBF8C017B018B
:101450008530910510F081E02BC0BC01F3E0660FF0
:10146000771FFA95E1F76B5A7D4FCE01039648E05E
:1014700050E061D08F8198858E159F0514F482E02D
:1014800017C08D819E81E816F90614F483E010C020
:10149000FA82E9820F5F1F4FC801880F991FBE01B2
:1014A0006F5F7F4F42E050E022E139E09AD080E068
:1014B0002A960FB6F894DEBF0FBECDBFCF91DF9155
:1014C0001F910F91FF90EF900895DF93CF9300D07D
:1014D000CDB7DEB7BC016F5F7F4F660F771FCE01C0
:1014E000019642E050E02AE039E03CD089819A81BF
:1014F0000F900F90CF91DF910895E82FF92F882753
:101500009927E89421912032E9F3293010F02E3008
:10151000C8F32B3239F02D3231F4689403C0D0D0A7
:10152000820F911D219120532A30C8F31EF490950B
:1015300081959F4F0895E62FF72FA82FB92F03C04D
:10154000C89531960D9241505040D0F70895E82F3C
:10155000F92FC89531960020E1F7809590958E0F70
:101560009F1F0895A0E0B0E0E7EBFAE036C3E82E55
:10157000F92EC62FD72F042F152FC22ED32E0DC014
:101580008C2F9D2F2196EC2DFD2D0995EE2DFF2DF5
:101590008193EE2EFF2E015010400115110581F7A9
:1015A000CDB7DEB7E8E035C3DF92EF92FF920F933D
:1015B0001F93E62EF72E082F192F802F912FE62F3D
:1015C000F72F0995D82E802F912F0196EE2DFF2D04
:1015D0000995982F8D2D1F910F91FF90EF90DF901F
:1015E0000895A0E0B0E0E6EFFAE0F7C2C82FD92FE7
:1015F000E62EF72E042F152FC22ED32E0DC08C2FC2
:101600009D2F2196EE2DFF2D6191EE2EFF2EEC2DBC
:10161000FD2D0995015010400115110581F7CDB739
:10162000DEB7E8E0F6C2BF92CF92DF92EF92FF9270
:101630000F931F93D52EC62EB72EE22EF32E082F12
:10164000192F802F912F642FE22FF32F0995802FD0
:10165000912F01966D2DEE2DFF2D0995802F912F45
:1016600002966C2DEE2DFF2D0995802F912F03965C
:101670006B2DEE2DFF2D09951F910F91FF90EF908F
:10168000DF90CF90BF900895DF92EF92FF920F937B
:101690001F93D72EE42EF52E082F192F802F912F70
:1016A000E42FF52F0995802F912F01966D2DEE2DAA
:1016B000FF2D09951F910F91FF90EF90DF900895F6
:1016C000682F792F880F991F880F991F860F971FF2
:1016D000880F991F08955058BB27AA270ED00DC117
:1016E000FED030F003D120F031F49F3F11F41EF40E
:1016F000F3C00EF4E095E7FBE9C0E92F0FD180F3CA
:10170000BA17620773078407950718F099F4C6F5AE
:1017100027C10EF4E0950B2EBA2FA02D062E622FB6
:10172000202D072E732F302D082E842F402D092EAB
:10173000952F502DFF27591B99F0593F50F4503EDB
:1017400068F11A16F040A22F232F342F4427585F38
:10175000F3CF469537952795A795F0405395C9F750
:101760007EF41F16BA0B620B730B840BBAF0915008
:10177000A1F0FF0FBB1F661F771F881FC2F70EC0A7
:10178000BA0F621F731F841F48F48795779567957A
:10179000B795F7959E3F08F0AECF9395880F08F068
:1017A0009927EE0F9795879508956CD008F481E0FE
:1017B0000895BCD088F09F5790F0B92F9927B75162
:1017C000A0F0D1F0660F771F881F991F1AF0BA9505
:1017D000C9F712C0B13081F0C3D0B1E00895C0C0E4
:1017E000672F782F8827B85F39F0B93FCCF38695FB
:1017F00077956795B395D9F73EF490958095709558
:1018000061957F4F8F4F9F4F0895E89409C097FBD4
:101810003EF490958095709561957F4F8F4F9F4FC7
:101820009923A9F0F92F96E9BB279395F69587950B
:1018300077956795B795F111F8CFFAF4BB0F11F4CE
:1018400060FF1BC06F5F7F4F8F4F9F4F16C0882375
:1018500011F096E911C0772321F09EE8872F762FAB
:1018600005C0662371F096E8862F70E060E02AF0EC
:101870009A95660F771F881FDAF7880F96958795D8
:1018800097F90895990F0008550FAA0BE0E8FEEFAD
:1018900016161706E807F907C0F012161306E40734
:1018A000F50798F0621B730B840B950B39F40A262D
:1018B00061F0232B242B252B21F408950A2609F40B
:1018C000A140A6958FEF811D811D089597F99F670F
:1018D00080E870E060E008959FEF80EC08950024B8
:1018E0000A941616170618060906089500240A9485
:1018F00012161306140605060895092E0394000C0B
:1019000011F4882352F0BB0F40F4BF2B11F460FF99
:1019100004C06F5F7F4F8F4F9F4F089557FD9058C2
:10192000440F551F59F05F3F71F04795880F97FBA3
:10193000991F61F09F3F79F087950895121613065D
:101940001406551FF2CF4695F1DF08C0161617068C
:101950001806991FF1CF86957105610508940895C1
:10196000E894BB2766277727862F972F97F9089546
:101970000AD0C3CFB4DF28F0B9DF18F0952309F0FF
:10198000A5CFAACFEECFCADFA8F39923D9F3552369
:10199000C9F3950F50E0551FAA27EE27FF27BB2755
:1019A00000240894679520F4E20FF31FB41F0A1E69
:1019B000220F331F441FAA1F6695A9F7779530F4AD
:1019C000F30FB41F0A1E121E08F46395330F441F51
:1019D000AA1F221F769599F7879520F4B40F0A1E47
:1019E000121E631F440FAA1F221F331F8695A9F7DB
:1019F000862F712D602D11249F5750408AF0E1F001
:101A000088234AF0EE0FFF1FBB1F661F771F881F3A
:101A100091505040A9F79E3F510570F057CFA1CF8C
:101A20005F3FECF3983EDCF3869577956795B79525
:101A3000F795E7959F5FC1F7FE2B880F911D96954F
:101A4000879597F9089511F40EF446CF45C06EDFDF
:101A5000D0F39923D9F3CEF39F57550B87FF4AD084
:101A60000024A0E640EA202D312D80585695979508
:101A700028F4805C660F771F881F20F02617370731
:101A8000480730F4621B730B840B202931294A2B41
:101A9000A69517940794202531254A2758F7660FF5
:101AA000771F881F20F026173707480730F4620B8E
:101AB000730B840B200D311D411DA09581F7622F02
:101AC000732F842F9158880F969587950895262F08
:101AD000372F482F592F4CCF9F3F31F0915020F492
:101AE000879577956795B795880F911D96958795FA
:101AF00097F9089591505040660F771F881FD2F7CD
:101B000008955527002480FF02C0060E571F660F58
:101B1000771F6115710521F096958795009799F7C4
:101B2000952F802D0895FF27EE27BB27AA2760FF5A
:101B300004C0A20FB31FE41FF51F220F331F441F61
:101B4000551F969587957795679589F7009776073E
:101B500071F79F2F8E2F7B2F6A2F0895991B79E0A5
:101B600004C0991F961708F0961B881F7A95C9F72D
:101B700080950895AA1BBB1B51E107C0AA1FBB1F7C
:101B8000A617B70710F0A61BB70B881F991F5A9509
:101B9000A9F780959095682F792F8A2F9B2F08950C
:101BA00097FB092E07260AD077FD04D0E3DF06D085
:101BB00000201AF4709561957F4F0895F6F790957F
:101BC00081959F4F08952F923F924F925F926F920F
:101BD0007F928F929F92AF92BF92CF92DF92EF92BD
:101BE000FF920F931F93CF93DF93CDB7DEB7CA1B3E
:101BF000DB0B0FB6F894DEBF0FBECDBF09942A8869
:101C0000398848885F846E847D848C849B84AA8410
:101C1000B984C884DF80EE80FD800C811B81AA819D
:101C2000B981CE0FD11D0FB6F894DEBF0FBECDBF68
:061C3000CA2FDB2F08950E
:021C360080002C
:02000004008278
:0300000062E3E0D8
:02000004008377
:01000000FF00
:00000001FF
